{
  "_format": "hh-sol-artifact-1",
  "contractName": "Metacircle",
  "sourceName": "contracts/Metacircle.sol",
  "abi": [
    {
      "inputs": [],
      "name": "commentCount",
      "outputs": [
        {
          "internalType": "uint256",
          "name": "",
          "type": "uint256"
        }
      ],
      "stateMutability": "view",
      "type": "function"
    },
    {
      "inputs": [
        {
          "internalType": "uint256",
          "name": "_postId",
          "type": "uint256"
        },
        {
          "internalType": "string",
          "name": "_content",
          "type": "string"
        }
      ],
      "name": "commentOnPost",
      "outputs": [],
      "stateMutability": "nonpayable",
      "type": "function"
    },
    {
      "inputs": [
        {
          "internalType": "uint256",
          "name": "",
          "type": "uint256"
        }
      ],
      "name": "comments",
      "outputs": [
        {
          "internalType": "uint256",
          "name": "commentId",
          "type": "uint256"
        },
        {
          "internalType": "string",
          "name": "authorUsername",
          "type": "string"
        },
        {
          "internalType": "uint256",
          "name": "postId",
          "type": "uint256"
        },
        {
          "internalType": "string",
          "name": "content",
          "type": "string"
        }
      ],
      "stateMutability": "view",
      "type": "function"
    },
    {
      "inputs": [
        {
          "internalType": "string",
          "name": "_content",
          "type": "string"
        }
      ],
      "name": "createPost",
      "outputs": [],
      "stateMutability": "nonpayable",
      "type": "function"
    },
    {
      "inputs": [
        {
          "internalType": "string",
          "name": "_username",
          "type": "string"
        },
        {
          "internalType": "string",
          "name": "_bio",
          "type": "string"
        }
      ],
      "name": "createUser",
      "outputs": [],
      "stateMutability": "nonpayable",
      "type": "function"
    },
    {
      "inputs": [
        {
          "internalType": "uint256",
          "name": "_postId",
          "type": "uint256"
        }
      ],
      "name": "getCommentsForPost",
      "outputs": [
        {
          "components": [
            {
              "internalType": "uint256",
              "name": "commentId",
              "type": "uint256"
            },
            {
              "internalType": "string",
              "name": "authorUsername",
              "type": "string"
            },
            {
              "internalType": "uint256",
              "name": "postId",
              "type": "uint256"
            },
            {
              "internalType": "string",
              "name": "content",
              "type": "string"
            }
          ],
          "internalType": "struct Metacircle.Comment[]",
          "name": "",
          "type": "tuple[]"
        }
      ],
      "stateMutability": "view",
      "type": "function"
    },
    {
      "inputs": [
        {
          "internalType": "uint256",
          "name": "_postId",
          "type": "uint256"
        }
      ],
      "name": "getPostAuthorUsername",
      "outputs": [
        {
          "internalType": "string",
          "name": "",
          "type": "string"
        }
      ],
      "stateMutability": "view",
      "type": "function"
    },
    {
      "inputs": [
        {
          "internalType": "address",
          "name": "_userAddress",
          "type": "address"
        }
      ],
      "name": "getUsername",
      "outputs": [
        {
          "internalType": "string",
          "name": "",
          "type": "string"
        }
      ],
      "stateMutability": "view",
      "type": "function"
    },
    {
      "inputs": [
        {
          "internalType": "uint256",
          "name": "_postId",
          "type": "uint256"
        },
        {
          "internalType": "address",
          "name": "_user",
          "type": "address"
        }
      ],
      "name": "isPostLikedByUser",
      "outputs": [
        {
          "internalType": "bool",
          "name": "",
          "type": "bool"
        }
      ],
      "stateMutability": "view",
      "type": "function"
    },
    {
      "inputs": [
        {
          "internalType": "address",
          "name": "_user",
          "type": "address"
        }
      ],
      "name": "isUserRegistered",
      "outputs": [
        {
          "internalType": "bool",
          "name": "",
          "type": "bool"
        }
      ],
      "stateMutability": "view",
      "type": "function"
    },
    {
      "inputs": [
        {
          "internalType": "uint256",
          "name": "_postId",
          "type": "uint256"
        }
      ],
      "name": "likePost",
      "outputs": [],
      "stateMutability": "nonpayable",
      "type": "function"
    },
    {
      "inputs": [],
      "name": "postCount",
      "outputs": [
        {
          "internalType": "uint256",
          "name": "",
          "type": "uint256"
        }
      ],
      "stateMutability": "view",
      "type": "function"
    },
    {
      "inputs": [
        {
          "internalType": "uint256",
          "name": "",
          "type": "uint256"
        }
      ],
      "name": "posts",
      "outputs": [
        {
          "internalType": "uint256",
          "name": "postId",
          "type": "uint256"
        },
        {
          "internalType": "address",
          "name": "author",
          "type": "address"
        },
        {
          "internalType": "string",
          "name": "content",
          "type": "string"
        },
        {
          "internalType": "uint256",
          "name": "likes",
          "type": "uint256"
        }
      ],
      "stateMutability": "view",
      "type": "function"
    },
    {
      "inputs": [
        {
          "internalType": "uint256",
          "name": "_postId",
          "type": "uint256"
        }
      ],
      "name": "unlikePost",
      "outputs": [],
      "stateMutability": "nonpayable",
      "type": "function"
    },
    {
      "inputs": [
        {
          "internalType": "address",
          "name": "",
          "type": "address"
        }
      ],
      "name": "users",
      "outputs": [
        {
          "internalType": "address",
          "name": "userAddress",
          "type": "address"
        },
        {
          "internalType": "string",
          "name": "username",
          "type": "string"
        },
        {
          "internalType": "string",
          "name": "bio",
          "type": "string"
        }
      ],
      "stateMutability": "view",
      "type": "function"
    }
  ],
  "bytecode": "0x608060405234801561001057600080fd5b506117a0806100206000396000f3fe608060405234801561001057600080fd5b50600436106100f55760003560e01c806387b162b511610097578063c7303c6111610066578063c7303c611461021c578063ce43c0321461022f578063f80ad44a14610242578063fa188de91461026257600080fd5b806387b162b5146101b15780638c852d91146101c45780638ebb4c15146101d7578063a87430ba146101fa57600080fd5b806317906c2e116100d357806317906c2e1461016957806345ff20de146101805780636473215414610189578063725009d31461019e57600080fd5b80630b1e7f83146100fa578063163f75221461012657806316e6da3c14610149575b600080fd5b61010d610108366004611140565b610275565b60405161011d949392919061119f565b60405180910390f35b6101396101343660046111f4565b610331565b604051901515815260200161011d565b61015c610157366004611140565b610360565b60405161011d9190611216565b61017260035481565b60405190815260200161011d565b61017260045481565b61019c6101973660046112cc565b610480565b005b61019c6101ac366004611140565b6105ca565b61019c6101bf366004611313565b610747565b6101396101d236600461136d565b610834565b6101ea6101e5366004611140565b6108c2565b60405161011d9493929190611399565b61020d6102083660046111f4565b6109fb565b60405161011d939291906113d5565b61019c61022a366004611413565b610b38565b61015c61023d3660046111f4565b610c02565b610255610250366004611140565b610d1f565b60405161011d9190611450565b61019c610270366004611140565b610fc8565b60016020819052600091825260409091208054918101546002820180546001600160a01b0390921692916102a8906114ee565b80601f01602080910402602001604051908101604052809291908181526020018280546102d4906114ee565b80156103215780601f106102f657610100808354040283529160200191610321565b820191906000526020600020905b81548152906001019060200180831161030457829003601f168201915b5050505050908060030154905084565b6001600160a01b03811660009081526020819052604081206001018054610357906114ee565b15159392505050565b600081815260016020819052604090912001546060906001600160a01b03166103c75760405162461bcd60e51b81526020600482015260146024820152732837b9ba103237b2b9903737ba1032bc34b9ba1760611b60448201526064015b60405180910390fd5b60008281526001602081815260408084208301546001600160a01b0316808552918490529092200180546103fa906114ee565b80601f0160208091040260200160405190810160405280929190818152602001828054610426906114ee565b80156104735780601f1061044857610100808354040283529160200191610473565b820191906000526020600020905b81548152906001019060200180831161045657829003601f168201915b5050505050915050919050565b336000908152602081905260409020600101805461049d906114ee565b90506000036104e55760405162461bcd60e51b81526020600482015260146024820152732ab9b2b9103237b2b9903737ba1032bc34b9ba1760611b60448201526064016103be565b600082815260016020819052604090912001546001600160a01b03166105445760405162461bcd60e51b81526020600482015260146024820152732837b9ba103237b2b9903737ba1032bc34b9ba1760611b60448201526064016103be565b600480549060006105548361153e565b9091555050600454600081815260026020908152604080832093845533835290829052902060018083019161058a9101826115a8565b5060028101839055600381016105a08382611685565b50505060009081526001602081815260408320600454600590910180549384018155845292200155565b33600090815260208190526040902060010180546105e7906114ee565b905060000361062f5760405162461bcd60e51b81526020600482015260146024820152732ab9b2b9103237b2b9903737ba1032bc34b9ba1760611b60448201526064016103be565b600081815260016020819052604090912001546001600160a01b031661068e5760405162461bcd60e51b81526020600482015260146024820152732837b9ba103237b2b9903737ba1032bc34b9ba1760611b60448201526064016103be565b600081815260016020908152604080832033845260040190915290205460ff16156106fb5760405162461bcd60e51b815260206004820152601860248201527f416c7265616479206c696b6564207468697320706f73742e000000000000000060448201526064016103be565b60008181526001602052604081206003018054916107188361153e565b90915550506000908152600160208181526040808420338552600401909152909120805460ff19169091179055565b3360009081526020819052604090206001018054610764906114ee565b1590506107b35760405162461bcd60e51b815260206004820152601460248201527f5573657220616c7265616479206578697374732e00000000000000000000000060448201526064016103be565b604080516060810182523380825260208083018681528385018690526000928352908290529290208151815473ffffffffffffffffffffffffffffffffffffffff19166001600160a01b03909116178155915190919060018201906108189082611685565b506040820151600282019061082d9082611685565b5050505050565b6000828152600160208190526040822001546001600160a01b03166108925760405162461bcd60e51b81526020600482015260146024820152732837b9ba103237b2b9903737ba1032bc34b9ba1760611b60448201526064016103be565b5060008281526001602090815260408083206001600160a01b038516845260040190915290205460ff1692915050565b600260205260009081526040902080546001820180549192916108e4906114ee565b80601f0160208091040260200160405190810160405280929190818152602001828054610910906114ee565b801561095d5780601f106109325761010080835404028352916020019161095d565b820191906000526020600020905b81548152906001019060200180831161094057829003601f168201915b505050505090806002015490806003018054610978906114ee565b80601f01602080910402602001604051908101604052809291908181526020018280546109a4906114ee565b80156109f15780601f106109c6576101008083540402835291602001916109f1565b820191906000526020600020905b8154815290600101906020018083116109d457829003601f168201915b5050505050905084565b600060208190529081526040902080546001820180546001600160a01b039092169291610a27906114ee565b80601f0160208091040260200160405190810160405280929190818152602001828054610a53906114ee565b8015610aa05780601f10610a7557610100808354040283529160200191610aa0565b820191906000526020600020905b815481529060010190602001808311610a8357829003601f168201915b505050505090806002018054610ab5906114ee565b80601f0160208091040260200160405190810160405280929190818152602001828054610ae1906114ee565b8015610b2e5780601f10610b0357610100808354040283529160200191610b2e565b820191906000526020600020905b815481529060010190602001808311610b1157829003601f168201915b5050505050905083565b3360009081526020819052604090206001018054610b55906114ee565b9050600003610b9d5760405162461bcd60e51b81526020600482015260146024820152732ab9b2b9103237b2b9903737ba1032bc34b9ba1760611b60448201526064016103be565b60038054906000610bad8361153e565b909155505060035460008181526001602081905260409091209182558101805473ffffffffffffffffffffffffffffffffffffffff19163317905560028101610bf68382611685565b50600060039091015550565b6001600160a01b0381166000908152602081905260409020600101805460609190610c2c906114ee565b9050600003610c745760405162461bcd60e51b81526020600482015260146024820152732ab9b2b9103237b2b9903737ba1032bc34b9ba1760611b60448201526064016103be565b6001600160a01b03821660009081526020819052604090206001018054610c9a906114ee565b80601f0160208091040260200160405190810160405280929190818152602001828054610cc6906114ee565b8015610d135780601f10610ce857610100808354040283529160200191610d13565b820191906000526020600020905b815481529060010190602001808311610cf657829003601f168201915b50505050509050919050565b600081815260016020819052604090912001546060906001600160a01b0316610d815760405162461bcd60e51b81526020600482015260146024820152732837b9ba103237b2b9903737ba1032bc34b9ba1760611b60448201526064016103be565b600082815260016020526040812060050154908167ffffffffffffffff811115610dad57610dad611229565b604051908082528060200260200182016040528015610e0957816020015b610df66040518060800160405280600081526020016060815260200160008152602001606081525090565b815260200190600190039081610dcb5790505b50905060005b82811015610fc05760008581526001602052604081206005018054600292919084908110610e3f57610e3f61173d565b9060005260206000200154815260200190815260200160002060405180608001604052908160008201548152602001600182018054610e7d906114ee565b80601f0160208091040260200160405190810160405280929190818152602001828054610ea9906114ee565b8015610ef65780601f10610ecb57610100808354040283529160200191610ef6565b820191906000526020600020905b815481529060010190602001808311610ed957829003601f168201915b5050505050815260200160028201548152602001600382018054610f19906114ee565b80601f0160208091040260200160405190810160405280929190818152602001828054610f45906114ee565b8015610f925780601f10610f6757610100808354040283529160200191610f92565b820191906000526020600020905b815481529060010190602001808311610f7557829003601f168201915b505050505081525050828281518110610fad57610fad61173d565b6020908102919091010152600101610e0f565b509392505050565b3360009081526020819052604090206001018054610fe5906114ee565b905060000361102d5760405162461bcd60e51b81526020600482015260146024820152732ab9b2b9103237b2b9903737ba1032bc34b9ba1760611b60448201526064016103be565b600081815260016020819052604090912001546001600160a01b031661108c5760405162461bcd60e51b81526020600482015260146024820152732837b9ba103237b2b9903737ba1032bc34b9ba1760611b60448201526064016103be565b600081815260016020908152604080832033845260040190915290205460ff166110f85760405162461bcd60e51b815260206004820152601c60248201527f596f7520686176656e2774206c696b6564207468697320706f73742e0000000060448201526064016103be565b600081815260016020526040812060030180549161111583611753565b909155505060009081526001602090815260408083203384526004019091529020805460ff19169055565b60006020828403121561115257600080fd5b5035919050565b6000815180845260005b8181101561117f57602081850181015186830182015201611163565b506000602082860101526020601f19601f83011685010191505092915050565b8481526001600160a01b03841660208201526080604082015260006111c76080830185611159565b905082606083015295945050505050565b80356001600160a01b03811681146111ef57600080fd5b919050565b60006020828403121561120657600080fd5b61120f826111d8565b9392505050565b60208152600061120f6020830184611159565b634e487b7160e01b600052604160045260246000fd5b600082601f83011261125057600080fd5b813567ffffffffffffffff8082111561126b5761126b611229565b604051601f8301601f19908116603f0116810190828211818310171561129357611293611229565b816040528381528660208588010111156112ac57600080fd5b836020870160208301376000602085830101528094505050505092915050565b600080604083850312156112df57600080fd5b82359150602083013567ffffffffffffffff8111156112fd57600080fd5b6113098582860161123f565b9150509250929050565b6000806040838503121561132657600080fd5b823567ffffffffffffffff8082111561133e57600080fd5b61134a8683870161123f565b9350602085013591508082111561136057600080fd5b506113098582860161123f565b6000806040838503121561138057600080fd5b82359150611390602084016111d8565b90509250929050565b8481526080602082015260006113b26080830186611159565b84604084015282810360608401526113ca8185611159565b979650505050505050565b6001600160a01b03841681526060602082015260006113f76060830185611159565b82810360408401526114098185611159565b9695505050505050565b60006020828403121561142557600080fd5b813567ffffffffffffffff81111561143c57600080fd5b6114488482850161123f565b949350505050565b600060208083018184528085518083526040925060408601915060408160051b87010184880160005b838110156114e057603f19898403018552815160808151855288820151818a8701526114a782870182611159565b9150508782015188860152606080830151925085820381870152506114cc8183611159565b968901969450505090860190600101611479565b509098975050505050505050565b600181811c9082168061150257607f821691505b60208210810361152257634e487b7160e01b600052602260045260246000fd5b50919050565b634e487b7160e01b600052601160045260246000fd5b60006001820161155057611550611528565b5060010190565b601f8211156115a3576000816000526020600020601f850160051c810160208610156115805750805b601f850160051c820191505b8181101561159f5782815560010161158c565b5050505b505050565b8181036115b3575050565b6115bd82546114ee565b67ffffffffffffffff8111156115d5576115d5611229565b6115e9816115e384546114ee565b84611557565b6000601f82116001811461161d57600083156116055750848201545b600019600385901b1c1916600184901b17845561082d565b600085815260209020601f19841690600086815260209020845b838110156116575782860154825560019586019590910190602001611637565b50858310156116755781850154600019600388901b60f8161c191681555b5050505050600190811b01905550565b815167ffffffffffffffff81111561169f5761169f611229565b6116ad816115e384546114ee565b602080601f8311600181146116e257600084156116ca5750858301515b600019600386901b1c1916600185901b17855561159f565b600085815260208120601f198616915b82811015611711578886015182559484019460019091019084016116f2565b508582101561167557939096015160001960f8600387901b161c19169092555050600190811b01905550565b634e487b7160e01b600052603260045260246000fd5b60008161176257611762611528565b50600019019056fea264697066735822122086c3fe3187c2f964513ad0a5de18511767170d89768aeea9c8e45cc71099a38064736f6c63430008180033",
  "linkReferences": {},
  "deployedLinkReferences": {}
}